{
  "contractName": "Betting",
  "abi": [
    {
      "inputs": [],
      "stateMutability": "nonpayable",
      "type": "constructor"
    },
    {
      "inputs": [],
      "name": "owner",
      "outputs": [
        {
          "internalType": "address",
          "name": "",
          "type": "address"
        }
      ],
      "stateMutability": "view",
      "type": "function"
    },
    {
      "inputs": [
        {
          "internalType": "address",
          "name": "depositAddress",
          "type": "address"
        },
        {
          "internalType": "uint256",
          "name": "amount",
          "type": "uint256"
        },
        {
          "internalType": "bool",
          "name": "above",
          "type": "bool"
        }
      ],
      "name": "bet",
      "outputs": [],
      "stateMutability": "nonpayable",
      "type": "function"
    },
    {
      "inputs": [],
      "name": "getDaysLeft",
      "outputs": [
        {
          "internalType": "uint256",
          "name": "",
          "type": "uint256"
        }
      ],
      "stateMutability": "view",
      "type": "function"
    },
    {
      "inputs": [
        {
          "internalType": "address",
          "name": "depositAddress",
          "type": "address"
        }
      ],
      "name": "getBalance",
      "outputs": [
        {
          "internalType": "uint256",
          "name": "",
          "type": "uint256"
        }
      ],
      "stateMutability": "view",
      "type": "function"
    },
    {
      "inputs": [
        {
          "internalType": "address",
          "name": "depositAddress",
          "type": "address"
        }
      ],
      "name": "getShares",
      "outputs": [
        {
          "internalType": "uint256",
          "name": "",
          "type": "uint256"
        }
      ],
      "stateMutability": "view",
      "type": "function"
    },
    {
      "inputs": [],
      "name": "getCurrentTime",
      "outputs": [
        {
          "internalType": "uint256",
          "name": "",
          "type": "uint256"
        }
      ],
      "stateMutability": "view",
      "type": "function"
    },
    {
      "inputs": [
        {
          "internalType": "uint256",
          "name": "price",
          "type": "uint256"
        }
      ],
      "name": "setFinalPrice",
      "outputs": [],
      "stateMutability": "nonpayable",
      "type": "function"
    },
    {
      "inputs": [
        {
          "internalType": "address",
          "name": "depositAddress",
          "type": "address"
        }
      ],
      "name": "didWin",
      "outputs": [
        {
          "internalType": "bool",
          "name": "",
          "type": "bool"
        }
      ],
      "stateMutability": "view",
      "type": "function"
    },
    {
      "inputs": [
        {
          "internalType": "address",
          "name": "depositAddress",
          "type": "address"
        }
      ],
      "name": "getPayout",
      "outputs": [
        {
          "internalType": "uint256",
          "name": "",
          "type": "uint256"
        }
      ],
      "stateMutability": "view",
      "type": "function"
    }
  ],
  "bytecode": "0x6080604052613a98600055600060015560006002556000600355600060045534801561002a57600080fd5b5033600860006101000a81548173ffffffffffffffffffffffffffffffffffffffff021916908373ffffffffffffffffffffffffffffffffffffffff160217905550610e7b8061007b6000396000f3fe608060405234801561001057600080fd5b50600436106100935760003560e01c8063bb55f25c11610066578063bb55f25c14610120578063efa3381b1461013c578063f04da65b1461016c578063f3c372f71461019c578063f8b2cb4f146101ba57610093565b806320d932001461009857806329cb924d146100b45780638006745b146100d25780638da5cb5b14610102575b600080fd5b6100b260048036038101906100ad919061092e565b6101ea565b005b6100bc61041c565b6040516100c99190610990565b60405180910390f35b6100ec60048036038101906100e791906109ab565b610424565b6040516100f99190610990565b60405180910390f35b61010a610580565b60405161011791906109e7565b60405180910390f35b61013a60048036038101906101359190610a02565b6105a6565b005b610156600480360381019061015191906109ab565b610640565b6040516101639190610a3e565b60405180910390f35b610186600480360381019061018191906109ab565b610772565b6040516101939190610990565b60405180910390f35b6101a46107bb565b6040516101b19190610990565b60405180910390f35b6101d460048036038101906101cf91906109ab565b6107e0565b6040516101e19190610990565b60405180910390f35b6000821161022d576040517f08c379a000000000000000000000000000000000000000000000000000000000815260040161022490610ab6565b60405180910390fd5b6000600560008573ffffffffffffffffffffffffffffffffffffffff1673ffffffffffffffffffffffffffffffffffffffff16815260200190815260200160002054146102af576040517f08c379a00000000000000000000000000000000000000000000000000000000081526004016102a690610b22565b60405180910390fd5b81600560008573ffffffffffffffffffffffffffffffffffffffff1673ffffffffffffffffffffffffffffffffffffffff16815260200190815260200160002060008282546102fe9190610b71565b9250508190555081600260008282546103179190610b71565b92505081905550600061032983610829565b905080600660008673ffffffffffffffffffffffffffffffffffffffff1673ffffffffffffffffffffffffffffffffffffffff168152602001908152602001600020600082825461037a9190610b71565b9250508190555081600760008673ffffffffffffffffffffffffffffffffffffffff1673ffffffffffffffffffffffffffffffffffffffff16815260200190815260200160002060006101000a81548160ff02191690831515021790555081156103fc5780600360008282546103f09190610b71565b92505081905550610416565b806004600082825461040e9190610b71565b925050819055505b50505050565b600042905090565b60008061043083610640565b90506001151581151514610479576040517f08c379a000000000000000000000000000000000000000000000000000000000815260040161047090610c13565b60405180910390fd5b600115158115151480156104905750600054600154115b156104f757600354600660008573ffffffffffffffffffffffffffffffffffffffff1673ffffffffffffffffffffffffffffffffffffffff168152602001908152602001600020546002546104e59190610c33565b6104ef9190610cbc565b91505061057b565b6001151581151514801561050e5750600054600154105b1561057557600454600660008573ffffffffffffffffffffffffffffffffffffffff1673ffffffffffffffffffffffffffffffffffffffff168152602001908152602001600020546002546105639190610c33565b61056d9190610cbc565b91505061057b565b60009150505b919050565b600860009054906101000a900473ffffffffffffffffffffffffffffffffffffffff1681565b600860009054906101000a900473ffffffffffffffffffffffffffffffffffffffff1673ffffffffffffffffffffffffffffffffffffffff163373ffffffffffffffffffffffffffffffffffffffff1614610636576040517f08c379a000000000000000000000000000000000000000000000000000000000815260040161062d90610d5f565b60405180910390fd5b8060018190555050565b60008060015411610686576040517f08c379a000000000000000000000000000000000000000000000000000000000815260040161067d90610df1565b60405180910390fd5b6000546001541180156106e9575060011515600760008473ffffffffffffffffffffffffffffffffffffffff1673ffffffffffffffffffffffffffffffffffffffff16815260200190815260200160002060009054906101000a900460ff161515145b156106f7576001905061076d565b60005460015410801561075a575060001515600760008473ffffffffffffffffffffffffffffffffffffffff1673ffffffffffffffffffffffffffffffffffffffff16815260200190815260200160002060009054906101000a900460ff161515145b15610768576001905061076d565b600090505b919050565b6000600660008373ffffffffffffffffffffffffffffffffffffffff1673ffffffffffffffffffffffffffffffffffffffff168152602001908152602001600020549050919050565b600062015180426363b0ccff6107d19190610e11565b6107db9190610cbc565b905090565b6000600560008373ffffffffffffffffffffffffffffffffffffffff1673ffffffffffffffffffffffffffffffffffffffff168152602001908152602001600020549050919050565b600061016d6108366107bb565b836108419190610c33565b61084b9190610cbc565b826108569190610b71565b9050919050565b600080fd5b600073ffffffffffffffffffffffffffffffffffffffff82169050919050565b600061088d82610862565b9050919050565b61089d81610882565b81146108a857600080fd5b50565b6000813590506108ba81610894565b92915050565b6000819050919050565b6108d3816108c0565b81146108de57600080fd5b50565b6000813590506108f0816108ca565b92915050565b60008115159050919050565b61090b816108f6565b811461091657600080fd5b50565b60008135905061092881610902565b92915050565b6000806000606084860312156109475761094661085d565b5b6000610955868287016108ab565b9350506020610966868287016108e1565b925050604061097786828701610919565b9150509250925092565b61098a816108c0565b82525050565b60006020820190506109a56000830184610981565b92915050565b6000602082840312156109c1576109c061085d565b5b60006109cf848285016108ab565b91505092915050565b6109e181610882565b82525050565b60006020820190506109fc60008301846109d8565b92915050565b600060208284031215610a1857610a1761085d565b5b6000610a26848285016108e1565b91505092915050565b610a38816108f6565b82525050565b6000602082019050610a536000830184610a2f565b92915050565b600082825260208201905092915050565b7f4465706f73697420616e20616d6f756e74203e20302065746800000000000000600082015250565b6000610aa0601983610a59565b9150610aab82610a6a565b602082019050919050565b60006020820190508181036000830152610acf81610a93565b9050919050565b7f4f6e6c7920312062657420706572206164647265737300000000000000000000600082015250565b6000610b0c601683610a59565b9150610b1782610ad6565b602082019050919050565b60006020820190508181036000830152610b3b81610aff565b9050919050565b7f4e487b7100000000000000000000000000000000000000000000000000000000600052601160045260246000fd5b6000610b7c826108c0565b9150610b87836108c0565b9250827fffffffffffffffffffffffffffffffffffffffffffffffffffffffffffffffff03821115610bbc57610bbb610b42565b5b828201905092915050565b7f596f7520646964206e6f742077696e2e00000000000000000000000000000000600082015250565b6000610bfd601083610a59565b9150610c0882610bc7565b602082019050919050565b60006020820190508181036000830152610c2c81610bf0565b9050919050565b6000610c3e826108c0565b9150610c49836108c0565b9250817fffffffffffffffffffffffffffffffffffffffffffffffffffffffffffffffff0483118215151615610c8257610c81610b42565b5b828202905092915050565b7f4e487b7100000000000000000000000000000000000000000000000000000000600052601260045260246000fd5b6000610cc7826108c0565b9150610cd2836108c0565b925082610ce257610ce1610c8d565b5b828204905092915050565b7f546869732063616e206f6e6c792062652063616c6c656420627920746865206360008201527f6f6e7472616374206f776e657221000000000000000000000000000000000000602082015250565b6000610d49602e83610a59565b9150610d5482610ced565b604082019050919050565b60006020820190508181036000830152610d7881610d3c565b9050919050565b7f5468652066696e616c20707269636520686173206e6f74206265656e2073657460008201527f207965742e000000000000000000000000000000000000000000000000000000602082015250565b6000610ddb602583610a59565b9150610de682610d7f565b604082019050919050565b60006020820190508181036000830152610e0a81610dce565b9050919050565b6000610e1c826108c0565b9150610e27836108c0565b925082821015610e3a57610e39610b42565b5b82820390509291505056fea264697066735822122054a25748e22fa71e957484023f0c244e9a1c33a472f37e7594fdda907f6c570e64736f6c634300080a0033",
  "immutableReferences": {},
  "source": "// SPDX-License-Identifier: MIT\r\npragma solidity >=0.4.22 <0.9.0;\r\n\r\ncontract Betting {\r\n    uint strike = 15000;\r\n    uint finalPrice = 0;\r\n    uint totalPayins = 0;\r\n    uint totalSharesAbove = 0;\r\n    uint totalSharesBelow = 0;\r\n    mapping (address => uint) balances;\r\n    mapping (address => uint) shares;\r\n    mapping (address => bool) bettingOnAbove;\r\n    address public owner;\r\n\r\n    constructor() {\r\n        owner = msg.sender;\r\n    }\r\n\r\n    function bet(address depositAddress, uint amount, bool above) public {\r\n        require(amount > 0, \"Deposit an amount > 0 eth\");\r\n        require(balances[depositAddress] == 0, \"Only 1 bet per address\");\r\n        balances[depositAddress] += amount;\r\n        totalPayins += amount;\r\n        uint share = calculateShare(amount);\r\n        shares[depositAddress] += share;\r\n        bettingOnAbove[depositAddress] = above;\r\n        if (above) {\r\n            totalSharesAbove += share;\r\n        } else {\r\n            totalSharesBelow += share;\r\n        }\r\n\r\n    }\r\n\r\n    function getDaysLeft() public view returns(uint) {\r\n        return (1672531199 - uint(block.timestamp)) / (60 * 60 * 24);\r\n    }\r\n\r\n    function getBalance(address depositAddress) public view returns(uint) {\r\n        return balances[depositAddress];\r\n    }\r\n\r\n    function getShares(address depositAddress) public view returns(uint) {\r\n        return shares[depositAddress];\r\n    }\r\n\r\n    function getCurrentTime() public view returns(uint) {\r\n        return block.timestamp;\r\n    }\r\n\r\n    function calculateShare(uint amount) private view returns(uint) {\r\n        return amount + amount * getDaysLeft() / 365;\r\n    }\r\n\r\n    function setFinalPrice(uint price) public{\r\n        require(msg.sender == owner, \"This can only be called by the contract owner!\");\r\n        // Do stuff\r\n        finalPrice = price;\r\n    }\r\n\r\n    function didWin(address depositAddress) public view returns(bool)  {\r\n        require(finalPrice > 0, \"The final price has not been set yet.\");\r\n        if (finalPrice > strike && bettingOnAbove[depositAddress] == true) {\r\n            return true;\r\n        } else if  (finalPrice < strike && bettingOnAbove[depositAddress] == false) {\r\n            return true;\r\n        }  else {\r\n            return false;\r\n        }\r\n    }\r\n\r\n    function getPayout(address depositAddress) public view returns(uint) {\r\n        bool won = didWin(depositAddress);\r\n        require(won == true, \"You did not win.\");\r\n        if (won == true && finalPrice > strike) {\r\n            return totalPayins * shares[depositAddress] / totalSharesAbove;\r\n        } else if (won == true && finalPrice < strike) {\r\n            return totalPayins* shares[depositAddress] / totalSharesBelow;\r\n        } else {\r\n            return 0;\r\n        }\r\n    }\r\n\r\n\r\n}\r\n",
  "sourcePath": "C:\\Users\\mail2\\Documents\\workspace-ethereum\\betting\\contracts\\Betting.sol",
  "compiler": {
    "name": "solc",
    "version": "0.8.10+commit.fc410830.Emscripten.clang"
  },
  "schemaVersion": "3.4.3",
  "updatedAt": "2022-02-15T19:40:25.671Z",
  "devdoc": {
    "kind": "dev",
    "methods": {},
    "version": 1
  },
  "userdoc": {
    "kind": "user",
    "methods": {},
    "version": 1
  }
}